{
  "contractName": "Courses",
  "abi": [
    {
      "inputs": [
        {
          "internalType": "string",
          "name": "_fName",
          "type": "string"
        },
        {
          "internalType": "uint256",
          "name": "_age",
          "type": "uint256"
        }
      ],
      "name": "setInstructor",
      "outputs": [],
      "stateMutability": "nonpayable",
      "type": "function"
    },
    {
      "inputs": [],
      "name": "getInstructor",
      "outputs": [
        {
          "internalType": "string",
          "name": "",
          "type": "string"
        },
        {
          "internalType": "uint256",
          "name": "",
          "type": "uint256"
        }
      ],
      "stateMutability": "view",
      "type": "function",
      "constant": true
    }
  ],
  "bytecode": "0x608060405234801561001057600080fd5b506106eb806100206000396000f3fe608060405234801561001057600080fd5b50600436106100365760003560e01c806322faf03a1461003b5780633c1b81a514610057575b600080fd5b610055600480360381019061005091906102bd565b610076565b005b61005f610091565b60405161006d9291906103a7565b60405180910390f35b816000908161008591906105e3565b50806001819055505050565b60606000806001548180546100a590610406565b80601f01602080910402602001604051908101604052809291908181526020018280546100d190610406565b801561011e5780601f106100f35761010080835404028352916020019161011e565b820191906000526020600020905b81548152906001019060200180831161010157829003601f168201915b50505050509150915091509091565b6000604051905090565b600080fd5b600080fd5b600080fd5b600080fd5b6000601f19601f8301169050919050565b7f4e487b7100000000000000000000000000000000000000000000000000000000600052604160045260246000fd5b6101948261014b565b810181811067ffffffffffffffff821117156101b3576101b261015c565b5b80604052505050565b60006101c661012d565b90506101d2828261018b565b919050565b600067ffffffffffffffff8211156101f2576101f161015c565b5b6101fb8261014b565b9050602081019050919050565b82818337600083830152505050565b600061022a610225846101d7565b6101bc565b90508281526020810184848401111561024657610245610146565b5b610251848285610208565b509392505050565b600082601f83011261026e5761026d610141565b5b813561027e848260208601610217565b91505092915050565b6000819050919050565b61029a81610287565b81146102a557600080fd5b50565b6000813590506102b781610291565b92915050565b600080604083850312156102d4576102d3610137565b5b600083013567ffffffffffffffff8111156102f2576102f161013c565b5b6102fe85828601610259565b925050602061030f858286016102a8565b9150509250929050565b600081519050919050565b600082825260208201905092915050565b60005b83811015610353578082015181840152602081019050610338565b60008484015250505050565b600061036a82610319565b6103748185610324565b9350610384818560208601610335565b61038d8161014b565b840191505092915050565b6103a181610287565b82525050565b600060408201905081810360008301526103c1818561035f565b90506103d06020830184610398565b9392505050565b7f4e487b7100000000000000000000000000000000000000000000000000000000600052602260045260246000fd5b6000600282049050600182168061041e57607f821691505b602082108103610431576104306103d7565b5b50919050565b60008190508160005260206000209050919050565b60006020601f8301049050919050565b600082821b905092915050565b6000600883026104997fffffffffffffffffffffffffffffffffffffffffffffffffffffffffffffffff8261045c565b6104a3868361045c565b95508019841693508086168417925050509392505050565b6000819050919050565b60006104e06104db6104d684610287565b6104bb565b610287565b9050919050565b6000819050919050565b6104fa836104c5565b61050e610506826104e7565b848454610469565b825550505050565b600090565b610523610516565b61052e8184846104f1565b505050565b5b818110156105525761054760008261051b565b600181019050610534565b5050565b601f8211156105975761056881610437565b6105718461044c565b81016020851015610580578190505b61059461058c8561044c565b830182610533565b50505b505050565b600082821c905092915050565b60006105ba6000198460080261059c565b1980831691505092915050565b60006105d383836105a9565b9150826002028217905092915050565b6105ec82610319565b67ffffffffffffffff8111156106055761060461015c565b5b61060f8254610406565b61061a828285610556565b600060209050601f83116001811461064d576000841561063b578287015190505b61064585826105c7565b8655506106ad565b601f19841661065b86610437565b60005b828110156106835784890151825560018201915060208501945060208101905061065e565b868310156106a0578489015161069c601f8916826105a9565b8355505b6001600288020188555050505b50505050505056fea26469706673582212207583d653b942cb8ab59bbd4c4d80ad3dcdc3b656bfebd6b8ad3bfc6bf61a3b0c64736f6c63430008110033",
  "immutableReferences": {},
  "source": "// SPDX-License-Identifier: GPL-3.0\n\npragma solidity >=0.7.0 <0.9.0;\n\ncontract Courses {\n \n string fName;\n uint age;\n \n function setInstructor(string memory _fName, uint _age) public {\n   fName = _fName;\n   age = _age;\n }\n \n function getInstructor() public view returns (string memory , uint) {\n   return (fName, age);\n }\n \n}",
  "sourcePath": "/Users/nurariffinmohdzin/Documents/web3_exercise1/contracts/courses.sol",
  "compiler": {
    "name": "solc",
    "version": "0.8.17+commit.8df45f5f.Emscripten.clang"
  },
  "schemaVersion": "3.4.10",
  "updatedAt": "2022-11-04T09:08:40.316Z",
  "networkType": "ethereum",
  "devdoc": {
    "kind": "dev",
    "methods": {},
    "version": 1
  },
  "userdoc": {
    "kind": "user",
    "methods": {},
    "version": 1
  }
}